:020000040800F2
:100000000050002039220008890200088B020008F5
:100010008D0200088F020008910200080000000015
:100020000000000000000000000000009302000833
:1000300095020008000000009702000899020008DD
:100040008122000881220008812200088122000804
:1000500081220008812200088122000881220008F4
:1000600081220008812200088122000881220008E4
:1000700081220008812200088122000881220008D4
:1000800081220008812200088122000881220008C4
:1000900081220008812200088122000881220008B4
:1000A00081220008812200088122000881220008A4
:1000B0008122000881220008812200088122000894
:1000C0008122000881220008812200088122000884
:1000D00081220008A1020008812200088122000874
:1000E000812200088122000881220008000000000F
:1000F0000000000000000000000000000000000000
:0C01000000000000000000005FF808F1A3
:10010C0010B5054C237833B9044B13B10448AFF345
:10011C0000800123237010BD70000020000000003F
:10012C00EC2B000808B5034B1BB103490348AFF394
:10013C00008008BD0000000074000020EC2B0008BB
:10014C00034613F8012B002AFBD1181A013870470B
:10015C0072B6FEE700B591B02822002106A802F085
:10016C00AFF80023019302930393049305930122A8
:10017C0006924FF4803307930A9202220D920E934B
:10018C004FF4E0130F9306A800F0F0FC80B90F2396
:10019C00019302210291002303934FF48062049295
:1001AC00059301A800F014FF20B911B05DF804FB11
:1001BC00FFF7CEFFFFF7CCFF70B588B000F088FCDE
:1001CC00FFF7C8FF01F0D0F901F0F0F901F04CFA9B
:1001DC0041F2883000F0A0FC01F05AFB4FF47A7326
:1001EC0010222149214801F0F1FD01F02BFC35E0F2
:1001FC00204601F0ADFB08AB03EB840343F81C0C69
:10020C000134E4B2062CF3D9002425E0184D224623
:10021C001849284602F05CF82846FFF791FF134E68
:10022C004FF47A7382B22946304601F0CFFD08AB09
:10023C0003EB840353F81C2C0F49284602F048F8B2
:10024C002846FFF77DFF4FF47A7382B22946304679
:10025C0001F0BCFD0134E4B2062CD7D941F2883050
:10026C0000F05AFC0024CDE7042C00080801002003
:10027C008C000020182C0008282C0008FEE7FEE754
:10028C00FEE7FEE7FEE770477047704708B500F0E1
:10029C0031FC08BD08B5024801F084FE08BD00BF62
:1002AC000801002082B00E4B9A6942F001029A615B
:1002BC009A6902F001020092009ADA6942F08052C7
:1002CC00DA61DB6903F080530193019B054A5368A3
:1002DC0023F0E06343F00073536002B0704700BF3B
:1002EC0000100240000001402DE9F04782B00546A5
:1002FC00884617461E4600F009FC0A9B1B1A03EBA6
:10030C00060900F003FC82462B4B1B68C3F3CB336E
:10031C0009FB03F301932B689C6838EA04030CBFB8
:10032C004FF0010C4FF0000CBC4540D0B6F1FF3F34
:10033C00F1D000F0EBFBA0EB0A0048450AD2B9F172
:10034C00000F07D0019A02B14A46019B013B019371
:10035C009146E0E72A68536823F0E00353606B682A
:10036C00B3F5827F0BD0AB6AB3F5005F14D00123D9
:10037C0085F85130002385F85030032018E0AB6825
:10038C00B3F5004F02D0B3F5806FECD12A68136837
:10039C0023F040031360E6E72A68136823F4005344
:1003AC0013602A68136843F400531360DFE70020DE
:1003BC0002B0BDE8F08700BF0800002010B582B085
:1003CC0004460B46009200228021FFF78DFF08B9EE
:1003DC0002B010BD636D43F0200363650320F7E7A3
:1003EC0010B582B004460B464168B1F5827F10D03F
:1003FC006168B1F5827F03D1A168B1F5806F15D02A
:10040C000092002280212046FFF76EFFE0B902B077
:10041C0010BD8168B1F5004F02D0B1F5806FE7D106
:10042C002068016821F040010160E1E700920022A0
:10043C0001212046FFF758FF0028E8D0636D43F0F8
:10044C00200363650320E2E7636D43F020036365DB
:10045C000320DCE7002856D010B50446436A33B9B4
:10046C004368B3F5827F05D00023C36102E000230B
:10047C00036143610023A36294F85130002B3CD0FC
:10048C00022384F851302268136823F04003136070
:10049C00636803F48273A26802F404421343E268B3
:1004AC0002F400621343226902F0020213436269F0
:1004BC0002F001021343A26902F400721343E269D1
:1004CC0002F038021343226A02F080021343A26A3C
:1004DC0002F40052216813430B60638B226803F013
:1004EC00040353602268D36923F40063D3610020B2
:1004FC006065012384F8513010BD84F850302046DB
:10050C0001F078F8BCE7012070472DE9F04383B087
:10051C001D4690F85030012B00F0D18004468846DF
:10052C009146012380F8503000F0F0FA074694F819
:10053C005160F6B2012E40F0BA80B8F1000F00F015
:10054C00B780B9F1000F00F0B380032384F8513069
:10055C0000236365C4F83080A4F83490A4F8369076
:10056C00A363A387E38763642364A368B3F5004F95
:10057C001ED023681A6812F0400F03D11A6842F09B
:10058C0040021A60E368B3F5006F1CD0636813B1C6
:10059C00B9F1010F55D1226B236812781A73236BB2
:1005AC0001332363E38E9BB2013B9BB2E38648E0AD
:1005BC002268136823F0400313602268136843F425
:1005CC0080431360D5E7636813B1B9F1010F15D1FE
:1005DC00226B23681288DA60236B02332363E38E69
:1005EC009BB2013B9BB2E38608E000F08FFAC01B84
:1005FC00A84202D3B5F1FF3F15D1A5B1E38E9BB252
:10060C00002B3CD023689A6812F0020FEDD0226BBD
:10061C001288DA60236B02332363E38E9BB2013BB7
:10062C009BB2E386EAE7012384F8513003263FE0CE
:10063C0000F06CFAC01BA84202D3B5F1FF3F19D1F0
:10064C00C5B1E38E9BB2D3B123689A6812F0020F46
:10065C00EED0226B12781A73236B01332363B4F838
:10066C0036C01FFA8CFC0CF1FF3C1FFA8CFCA4F872
:10067C0036C0E6E7012384F85130032618E03A46E9
:10068C0029462046FFF79AFE08B120236365A3682C
:10069C0033B901932368DA6801929B680193019B3B
:1006AC00636D2BB9012384F85130002600E002263B
:1006BC00002384F85030304603B0BDE8F0830226A6
:1006CC00F9E72DE9F04383B01F460A9D90F85030AE
:1006DC00012B00F01681044688469146012380F8D0
:1006EC00503000F013FA064694F85130DBB26268D1
:1006FC00012B0AD0B2F5827F40F0F080A268002A6C
:10070C0040F0F380042B40F0F280B8F1000F00F0C1
:10071C00F080B9F1000F00F0EE80002F00F0ED80BA
:10072C0094F85130DBB2042B02D0052384F85130FD
:10073C0000236365C4F83890E787A787C4F8308036
:10074C00E786A7862364636423681A6812F0400F57
:10075C0003D11A6842F040021A60E368B3F5006FE7
:10076C0011D063680BB1012F0BD1226B2368127867
:10077C001A73236B01332363E38E9BB2013B9BB251
:10078C00E38601276EE063680BB1012F0BD1226B5E
:10079C0023681288DA60236B02332363E38E9BB2E7
:1007AC00013B9BB2E38601271BE023689A6812F099
:1007BC00010F0ED0E28F92B25AB1DA68A36B1A8095
:1007CC00A36B0233A363E38F9BB2013B9BB2E38722
:1007DC00012700F09BF9801BA84202D3B5F1FF3F23
:1007EC001ED1E38E9BB21BB9E38F9BB2002B5CD066
:1007FC0023689A6812F0020FD7D0E28E92B2002AC8
:10080C00D3D0002FD1D0226B1288DA60236B023345
:10081C002363E38E9BB2013B9BB2E3860027C4E7C4
:10082C00012384F85130032059E023689A6812F0B0
:10083C00010F0ED0E28F92B25AB1DA68A36B1A7024
:10084C00A36B0133A363E38F9BB2013B9BB2E387A2
:10085C00012700F05BF9831BAB4202D3B5F1FF3FDC
:10086C001ED1EDB1E38E9BB213B9E38F9BB2E3B112
:10087C0023689A6812F0020FD7D0E28E92B2002A47
:10088C00D3D0002FD1D0226B12781A73236B013383
:10089C002363E38E9BB2013B9BB2E3860027C4E744
:1008AC00012384F85130032019E0324629462046B2
:1008BC00FFF784FD70B9A36833B901932368DA6834
:1008CC0001929B680193019B636DC3B9012384F86A
:1008DC00513004E020236365012000E00220002356
:1008EC0084F8503003B0BDE8F0830220F7E7022013
:1008FC00F5E70120F3E70120F1E70120EFE7012004
:10090C00EDE70220EEE72DE9F04383B0044690F8C2
:10091C005160F6B2012E40F0AB80884691461D46E0
:10092C004368B3F5827F32D094F85030012B00F03D
:10093C00A780012384F8503000F0E8F80746B8F19E
:10094C00000F00F09680B9F1000F00F092800423A4
:10095C0084F8513000236365C4F83880A4F83C90C7
:10096C00A4F83E902363A386E38623646364A368A0
:10097C00B3F5004F18D023681A6812F0400F03D15A
:10098C001A6842F040021A60E3680BB343E08368D4
:10099C00002BC9D1042380F85130009513460A4628
:1009AC00FFF78FFE064667E02268136823F04003CA
:1009BC0013602268136823F480431360DBE700F0B4
:1009CC00A5F8C01BA84202D3B5F1FF3F15D1A5B1C4
:1009DC00E38F9BB2002B3CD023689A6812F0010F76
:1009EC00EDD0A26B1B7B1370A36B0133A363E38F5E
:1009FC009BB2013B9BB2E387EAE7012384F85130B9
:100A0C00032636E000F082F8C01BA84202D3B5F1F1
:100A1C00FF3F19D1C5B1E38F9BB2D3B123689A685C
:100A2C0012F0010FEED0DA68A36B1A80A36B0233BD
:100A3C00A363B4F83EC01FFA8CFC0CF1FF3C1FFA08
:100A4C008CFCA4F83EC0E6E7012384F85130032661
:100A5C000FE03A4629462046FFF7C2FC08B1202396
:100A6C006365636D2BB9012384F85130002600E0D7
:100A7C000226002384F85030304603B0BDE8F083E2
:100A8C000226F9E710B504460E4B18784FF47A732A
:100A9C00B3FBF0F30C4A1068B0FBF3F000F04EFD22
:100AAC0068B90F2C01D901200AE0002221464FF031
:100ABC00FF3000F0FDFC054B1C60002000E0012025
:100ACC0010BD00BF00000020080000200400002022
:100ADC0008B5074A136843F010031360032000F0B5
:100AEC00D5FC0F20FFF7CEFFFFF7DCFB002008BD85
:100AFC0000200240034A1168034B1B780B4413601F
:100B0C00704700BFAC00002000000020014B1868AB
:100B1C00704700BFAC00002038B50446FFF7F6FF65
:100B2C000546B4F1FF3F02D0044B1B781C44FFF781
:100B3C00EDFF401BA042FAD338BD00BF00000020DF
:100B4C0082B0084B1B68084AA2FB03235B0A00FB1C
:100B5C0003F3019300BF019B5A1E0192002BF9D1A4
:100B6C0002B0704708000020D34D6210002800F03E
:100B7C00F18170B582B00446036813F0010F2CD0DC
:100B8C00994B5B6803F00C03042B1DD0964B5B68F0
:100B9C0003F00C03082B12D06368B3F5803F41D0EF
:100BAC00002B55D103F1804303F504331A6822F46A
:100BBC0080321A601A6822F480221A6037E08A4B5D
:100BCC005B6813F4803FE7D0874B1B6813F4003F3E
:100BDC0003D06368002B00F0BF81236813F0020F71
:100BEC0075D0814B5B6813F00C0F5FD07E4B5B684C
:100BFC0003F00C03082B54D02369002B00F08A80DF
:100C0C007A4B01221A60FFF781FF0546764B1B6871
:100C1C0013F0020F75D1FFF779FF401B0228F5D9AD
:100C2C0003209EE1704A136843F4803313606368B9
:100C3C0043B3FFF76BFF05466B4B1B6813F4003F88
:100C4C00CBD1FFF763FF401B6428F5D9032088E163
:100C5C00B3F5A02F09D0644B1A6822F480321A60C5
:100C6C001A6822F480221A60E1E703F18043A3F5AD
:100C7C003C331A6842F480221A601A6842F48032BB
:100C8C001A60D4E7FFF742FF0546574B1B6813F475
:100C9C00003FA2D0FFF73AFF401B6428F5D9032090
:100CAC005FE1514B5B6813F4803FA5D14E4B1B6841
:100CBC0013F0020F03D02369012B40F04F814A4AF5
:100CCC00136823F0F803616943EAC10313602368D6
:100CDC0013F0080F33D0A369002B5CD0434B0122D7
:100CEC00C3F88024FFF712FF05463F4B5B6A13F0F5
:100CFC00020F21D1FFF70AFF401B0228F5D9032070
:100D0C002FE1394A136823F0F803616943EAC10300
:100D1C001360DCE7354B00221A60FFF7F7FE05463F
:100D2C00314B1B6813F0020FD1D0FFF7EFFE401BC5
:100D3C000228F5D9032014E10120FFF701FF2368F5
:100D4C0013F0040F00F09680274BDB6913F0805FE3
:100D5C0034D1254BDA6942F08052DA61DB6903F059
:100D6C0080530193019B0125214B1B6813F4807F59
:100D7C0026D0E368012B3DD0002B53D103F18043E7
:100D8C0003F504331A6A22F001021A621A6A22F07D
:100D9C0004021A6233E0154B0022C3F88024FFF7DB
:100DAC00B5FE0546104B5B6A13F0020FC7D0FFF778
:100DBC00ADFE401B0228F5D90320D2E00025D3E775
:100DCC000B4A136843F480731360FFF79FFE0646CB
:100DDC00074B1B6813F4807FCBD1FFF797FE801B6A
:100DEC006428F5D90320BCE0001002400000424208
:100DFC00007000405F4A136A43F001031362E3681A
:100E0C0033B3FFF783FE06465A4B1B6A13F0020FEF
:100E1C002FD1FFF77BFE801B41F288339842F3D928
:100E2C0003209EE0052B09D0524B1A6A22F00102D6
:100E3C001A621A6A22F004021A62E0E74D4B1A6A2F
:100E4C0042F004021A621A6A42F001021A62D6E7F0
:100E5C00FFF75CFE0646474B1B6A13F0020F08D0E7
:100E6C00FFF754FE801B41F288339842F3D90320DC
:100E7C0077E0E5B9E369002B72D03E4A526802F084
:100E8C000C02082A56D0022B17D03B4B00221A66B4
:100E9C00FFF73CFE0446374B1B6813F0007F47D02E
:100EAC00FFF734FE001B0228F5D9032059E0314A24
:100EBC00D36923F08053D361DCE72F4B00221A66F1
:100ECC00FFF724FE05462B4B1B6813F0007F06D062
:100EDC00FFF71CFE401B0228F5D9032041E0236AD2
:100EEC00B3F5803F1AD023494B6823F47413226A5C
:100EFC00606A024313434B601F4B01221A66FFF7D3
:100F0C0005FE04461B4B1B6813F0007F0ED1FFF748
:100F1C00FDFD001B0228F5D9032022E0154A536879
:100F2C0023F40033A1680B435360DCE7002018E086
:100F3C00002016E0012B16D00E4B5B6803F48031B9
:100F4C00226A914211D103F47013626A93420ED15A
:100F5C00002006E001207047012002E0012000E0A3
:100F6C00002002B070BD0120FBE70120F9E7012051
:100F7C00F7E700BF00100240000042420F4B5B68D5
:100F8C0003F00C02082A01D00D487047C3F38342CA
:100F9C000C49885C13F4803F0BD0084B5B68C3F39F
:100FAC004043094AD35C064A02FB00F0B0FBF3F065
:100FBC007047064B03FB00F0704700BF0010024067
:100FCC0000127A00302C0008402C000800093D006B
:100FDC00002800F0A08070B50D460446524B1B68EB
:100FEC0003F007038B420BD24F4A136823F007031D
:100FFC000B431360136803F007038B4240F08D80A2
:10100C00236813F0020F17D013F0040F04D0474AD3
:10101C00536843F4E0635360236813F0080F04D063
:10102C00424A536843F460535360404A536823F078
:10103C00F003A1680B435360236813F0010F31D008
:10104C006368012B20D0022B25D0384A126812F08D
:10105C00020F64D035494A6822F0030213434B60F7
:10106C00FFF754FD0646314B5B6803F00C036268D6
:10107C00B3EB820F16D0FFF749FD801B41F288338A
:10108C009842F0D9032045E0284A126812F4003F38
:10109C00E0D101203EE0254A126812F0007FD9D140
:1010AC00012037E0204B1B6803F00703AB420AD941
:1010BC001D4A136823F007032B431360136803F0D6
:1010CC000703AB422DD1236813F0040F06D0174A47
:1010DC00536823F4E063E1680B435360236813F017
:1010EC00080F07D0114A536823F46053216943EA6F
:1010FC00C1035360FFF742FF0C4B5B68C3F3031350
:10110C000B4AD35CD8400B4B18600B4B1868FFF79D
:10111C00B9FC002070BD012070470120FAE70120C6
:10112C00F8E70120F6E700BF002002400010024063
:10113C00442C00080800002004000020014B186813
:10114C00704700BF0800002008B5FFF7F7FF044BFD
:10115C005B68C3F30223034AD35CD84008BD00BFCD
:10116C0000100240542C000808B5FFF7E7FF044BB1
:10117C005B68C3F3C223034AD35CD84008BD00BFED
:10118C0000100240542C000870B582B00024A44614
:10119C00A6E0804DAA4210D007D97F4DAA420CD0B0
:1011AC0005F58035AA4208D013E0A5F58015AA42B2
:1011BC0003D005F57025AA4207D18A68002A58D0B9
:1011CC00012A51D04361082403E0A5F58015AA42F9
:1011DC00F3D0BEF1FF0F4ED80646BEF1FF0F4CD830
:1011EC004FEA8C0233680F25954023EA050304FA75
:1011FC0002F2134333604B6813F0805F6ED0674B81
:10120C009A6942F001029A619B6903F00103019310
:10121C00019B4FEA9C02951C614B53F825600CF026
:10122C0003039D000F23AB4026EA03065D4B984257
:10123C0029D003F58063984200F08E8003F580631B
:10124C00984200F08B8003F58063984219D00423F8
:10125C001AE0CC68BDE7CC680434BAE7CC68083433
:10126C00B7E7CC680C34B4E703610824B1E7002479
:10127C00AFE70424ADE7061DAFE7ACF1080292001E
:10128C00B0E7032300E00023AB4033430232444D6C
:10129C0045F822304B6813F4801F61D0424A9368A2
:1012AC0043EA0E0393604B6813F4001F5ED03E4A72
:1012BC00D36843EA0E03D3604B6813F4003F5BD052
:1012CC00394A536843EA0E0353604B6813F4803F6A
:1012DC0058D0354A136843EA0E0313600CF1010C25
:1012EC000A6832FA0CF353D0012303FA0CF302EA26
:1012FC00030E33EA0202F1D14A68122A3FF649AFD3
:10130C00122A3FF666AF01A555F822F0C711000866
:10131C005F120008691200087B120008DF11000838
:10132C00DF110008DF110008DF110008DF110008D1
:10133C00DF110008DF110008DF110008DF110008C1
:10134C00DF110008DF110008DF110008DF110008B1
:10135C00631200086F120008012395E7022393E73C
:10136C00114A936823EA0E0393609CE70E4AD368F4
:10137C0023EA0E03D3609FE70B4A536823EA0E035C
:10138C005360A2E7084A136823EA0E031360A5E72B
:10139C0002B070BD0000221000003110001002409D
:1013AC0000000140000801400004014090F8213089
:1013BC00DBB2022B06D004238363002380F8203099
:1013CC00012070470268136823F00E031360026853
:1013DC00136823F001031360036CC16B012202FA42
:1013EC0003F34B6080F82120002380F8203018464E
:1013FC007047000008B590F82130DBB2022B03D007
:10140C0004238363012008BD0268136823F00E03D4
:10141C0013600268136823F0010313600368194A10
:10142C00934214D0143293421FD0143293421ED0E4
:10143C00143293421ED0143293421ED01432934273
:10144C0002D04FF0807203E04FF4801200E00122D2
:10145C000D4B5A60012380F82130002380F8203096
:10146C00436B6BB198470020CDE71022F0E74FF4A7
:10147C008072EDE74FF48052EAE74FF48032E7E7F1
:10148C000020C0E70800024000000240074AD36871
:10149C0023F4E0631B041B0C000200F4E060034324
:1014AC0043F0BF6343F40033D360704700ED00E0BA
:1014BC0000B5194BDB68C3F30223C3F1070CBCF175
:1014CC00040F28BF4FF0040C03F1040EBEF1060FFD
:1014DC0018D9033B4FF0FF3E0EFA0CFC21EA0C012D
:1014EC0099400EFA03F322EA0303194300280BDB9D
:1014FC000901C9B200F1604000F5614080F80013A9
:10150C005DF804FB0023E5E700F00F000901C9B208
:10151C00024B1954F4E700BF00ED00E014ED00E0BD
:10152C00002807DB00F01F02400901239340024A08
:10153C0042F82030704700BF00E100E00138B0F104
:10154C00807F0BD24FF0E0235861054AF02182F8DE
:10155C0023100020986107221A6170470120704700
:10156C0000ED00E07047000084B00F4B9A6942F028
:10157C0010029A619A6902F010020192019A9A691A
:10158C0042F020029A619A6902F020020292029AB9
:10159C009A6942F004029A619B6903F00403039375
:1015AC00039B04B0704700BF0010024008B50F4801
:1015BC000F4B03604FF48273436000238360C3605E
:1015CC0002220261012242614FF4802282613822A0
:1015DC00C2610362436283620A23C362FEF73AFF6D
:1015EC0000B908BDFEF7B4FDFBE700BFB00000205A
:1015FC000030014010B586B000230293039304938E
:10160C0005930268164B9A4201D006B010BD03F543
:10161C0060439A6942F480529A619A6902F480524A
:10162C000092009A9A6942F004029A619B6903F055
:10163C0004030193019BB02302930223039303231E
:10164C000593084C02A92046FFF79EFD4023029308
:10165C0000230393049302A92046FFF795FDD4E7DA
:10166C00003001400008014008B50A480A4B0360ED
:10167C004FF4E133436000238360C36003610C22A9
:10168C0042618361C36100F071FB00B908BDFEF7D4
:10169C005FFDFBE7080100200038014030B587B042
:1016AC000023029303930493059302681B4B9A4205
:1016BC0001D007B030BD03F558439A6942F480421B
:1016CC009A619A6902F480420092009A9A6942F0F7
:1016DC0004029A619B6903F004030193019B4FF48C
:1016EC000073029302230393032305930C4D02A969
:1016FC002846FFF749FD4FF48063029300240394BE
:10170C00049402A92846FFF73FFD224621462520D6
:10171C00FFF7CEFE2520FFF703FFCAE70038014094
:10172C000008014010B582B0C000C0B240308DF846
:10173C00070000230093094C4FF47A7301220DF13A
:10174C0007012046FEF7E1FE4FF47A730122694649
:10175C002046FFF7D8F8009802B010BDB00000206A
:10176C0010B582B0C000C0B240308DF80700002325
:10177C0000930C4C4FF47A7301220DF107012046B3
:10178C00FEF7C3FE4FF47A73022269462046FFF738
:10179C00BAF8009BC3F307201B029BB218430090BE
:1017AC0002B010BDB000002010B582B0C000C0B2B5
:1017BC0040308DF80700002300930E4C4FF47A73E1
:1017CC0001220DF107012046FEF79FFE4FF47A73BC
:1017DC00032269462046FFF796F8009BC3F30740A7
:1017EC0003F47F4210431B0403F47F03184300905F
:1017FC0002B010BDB000002010B584B08DF80710F9
:10180C00C0008DF80F00094C4FF47A7301220DF1D2
:10181C000F012046FEF779FE4FF47A7301220DF189
:10182C0007012046FEF771FE04B010BDB000002089
:10183C0010B582B0C0008DF807000B0243EA1121ED
:10184C00ADF80410084C4FF47A7301220DF1070126
:10185C002046FEF75AFE4FF47A73022201A9204665
:10186C00FEF753FE02B010BDB0000020188820EA2D
:10187C00010189B21980114319807047138823EA3A
:10188C00010313807047138823EA01031380704708
:10189C0010B50220FFF764FF2B4C2080234600225A
:1018AC004FF440410220FFF7E1FF22464FF4005174
:1018BC000220FFF7E3FF22464FF480510220FFF78E
:1018CC00DDFF22464FF400610220FFF7D7FF2346CD
:1018DC004FF440724FF4E0610220FFF7C7FF23463C
:1018EC008022C0210220FFF7C1FF2346202211468F
:1018FC000220FFF7BBFF2346102211460220FFF700
:10190C00B5FF234600220F210220FFF7AFFF2188ED
:10191C000220FFF78DFF0D4C224680210520FFF79A
:10192C00B2FF224640210520FFF7ADFF22460021E1
:10193C000520FFF7A8FF21780520FFF75DFF217830
:10194C000520FFF759FF10BD520100205401002063
:10195C0070B506463A4C0025258023462A464FF49E
:10196C0040410220FFF782FF22464FF40051022033
:10197C00FFF784FF22464FF480510220FFF77EFFD1
:10198C0022464FF400610220FFF778FF23464FF404
:10199C0040724FF4E0610220FFF768FF234680227B
:1019AC00C0210220FFF762FF2346202211460220AD
:1019BC00FFF75CFF2346102211460220FFF756FF6B
:1019CC00234632460F210220FFF750FF21880220C8
:1019DC00FFF72EFF258023464FF400524FF4604151
:1019EC000120FFF743FF23464FF48052114601209C
:1019FC00FFF73CFF22464FF472610120FFF73EFFD8
:101A0C0023464022C0210120FFF730FF234610223D
:101A1C0011460120FFF72AFF234603220F21012044
:101A2C00FFF724FF21880120FFF702FF0020FFF7BA
:101A3C0079FE10F0800FF9D10320FFF7B5FE70BDD1
:101A4C005001002010B588B00020FFF76BFE024655
:101A5C004749684600F03CFC6846FEF771FB454C74
:101A6C004FF47A7382B26946204600F0AFF9012038
:101A7C00FFF776FE02464049684600F029FC6846AE
:101A8C00FEF75EFB4FF47A7382B26946204600F093
:101A9C009DF90220FFF764FE02463849684600F0C3
:101AAC0017FC6846FEF74CFB4FF47A7382B269461A
:101ABC00204600F08BF90320FFF776FE02463049F2
:101ACC00684600F005FC6846FEF73AFB4FF47A7363
:101ADC0082B26946204600F079F90420FFF722FE15
:101AEC0002462849684600F0F3FB6846FEF728FBDF
:101AFC004FF47A7382B26946204600F067F90520EC
:101B0C00FFF710FE02462049684600F0E1FB6846EC
:101B1C00FEF716FB4FF47A7382B26946204600F04A
:101B2C0055F90620FFF740FE02461849684600F0BA
:101B3C00CFFB6846FEF704FB4FF47A7382B269461A
:101B4C00204600F043F90720FFF72EFE024610490D
:101B5C00684600F0BDFB6846FEF7F2FA4FF47A7364
:101B6C0082B26946204600F031F908B010BD00BFC2
:101B7C005C2C0008080100206C2C00087C2C000850
:101B8C008C2C00089C2C0008AC2C0008BC2C0008E9
:101B9C00D02C0008026802F10C0353E8003F23F438
:101BAC0090730C3242E800310029F3D1026802F143
:101BBC00140353E8003F23F00103143242E80031D0
:101BCC000029F3D1036B012B05D0202380F8423080
:101BDC00002303637047026802F10C0353E8003FD3
:101BEC0023F010030C3242E800310029F3D1ECE76A
:101BFC0090F84130DBB2212B01D002207047836872
:101C0C00B3F5805F17D0036A5A1C02621A78036816
:101C1C005A60C38C9BB2013B9BB2C3844BB9026824
:101C2C00D36823F08003D3600268D36843F0400389
:101C3C00D360002070470369002BE4D1036A1B8832
:101C4C000268C3F308035360036A02330362E0E7DC
:101C5C0010B504460268136923F44053C1680B4362
:101C6C00136183680269134342691A430168CB68A4
:101C7C0023F4B05323F00C031343CB600268536975
:101C8C0023F4407381690B4353610268134B9A42EE
:101C9C0020D0FFF759FA024602EB820202EB8202D5
:101CAC0063689B00B2FBF3F20D48A0FB02314909BB
:101CBC00642303FB11231B013233A0FB03235B09B9
:101CCC0003F0F00202EB011203F00F03216813443E
:101CDC008B6010BDFFF748FA0246DDE70038014083
:101CEC001F85EB512DE9F84305460F4616469946DC
:101CFC00DDF820802C68246837EA04030CBF4FF011
:101D0C00010C4FF0000CB4452DD1B8F1FF3FF1D0D0
:101D1C00B8F1000F05D0FEF7F9FEA0EB0900404525
:101D2C00E8D92A6802F10C0353E8003F23F4D0737E
:101D3C000C3242E800310029F3D12A6802F1140375
:101D4C0053E8003F23F00103143242E8003100292C
:101D5C00F3D1202385F8413085F84230002385F8F3
:101D6C004030032000E00020BDE8F88360B310B5DC
:101D7C00044690F8413013B3242384F84130226890
:101D8C00D36823F40053D3602046FFF761FF226829
:101D9C00136923F4904313612268536923F02A03D7
:101DAC0053612268D36843F40053D360002060640D
:101DBC00202384F8413084F84230606310BD80F8F1
:101DCC004030FFF76BFCD7E7012070472DE9F0415D
:101DDC0082B01E4690F84130DBB2202B4BD104462A
:101DEC000D46904600294AD00AB9012044E0002350
:101DFC004364212380F84130FEF788FE0746A4F89F
:101E0C002480A4F82680A368B3F5805F02D04FF03D
:101E1C0000080FE02369FBB14FF000080AE038F826
:101E2C00023B2268C3F308035360E28C92B2013A7E
:101E3C0092B2E284E38C9BB28BB100963B460022BB
:101E4C0080212046FFF74EFFD8B9002DE7D015F8BA
:101E5C00012B23685A60E8E7A8460025EAE70096BC
:101E6C003B46002240212046FFF73CFF58B9202377
:101E7C0084F8413000E0022002B0BDE8F08101207E
:101E8C00FAE70320F8E70320F6E7704708B5016886
:101E9C00CA6822F04002CA60202280F84120FFF775
:101EAC00F4FF002008BD7047704708B5406A002356
:101EBC00C385C384FFF7F8FF08BD704790F8423024
:101ECC00DBB2222B69D18368B3F5805F4FD0826A75
:101EDC00B3F5805F04D0002B56D10369002B53D18E
:101EEC0003685B681370836A01338362C38D9BB292
:101EFC00013B9BB2C385002B51D100B583B0026866
:101F0C00D36823F02003D3600268D36823F4807372
:101F1C00D3600268536923F001035361202380F8D6
:101F2C00423000234363036B012B33D10023036343
:101F3C00026802F10C0353E8003F23F010030C324B
:101F4C0042E800310029F3D103681A6812F0100F2F
:101F5C0006D0002201921A6801925B680193019BE2
:101F6C00818DFFF7AAFF002003B05DF804FB026926
:101F7C00002AACD1826A03685B68C3F30803138040
:101F8C00836A02338362B1E703685B6803F07F0303
:101F9C001370A8E7FFF787FFE5E7022070470020E2
:101FAC007047000030B583B0044602681368D068EF
:101FBC00516913F00F0505D113F0200F02D010F06A
:101FCC00200F19D12DB111F0010119D110F4907F0E
:101FDC0016D1216B01297DD013F0800F03D010F0A6
:101FEC00800F40F0188113F0400F03D010F0400F19
:101FFC0040F0158103B030BD2046FFF75FFFF9E7D5
:10200C0013F0010F06D010F4807F03D0626C42F005
:10201C000102626413F0040F04D019B1626C42F037
:10202C000202626413F0020F04D019B1626C42F028
:10203C000402626413F0080F07D010F0200F00D1D7
:10204C0019B1626C42F008026264626C002AD1D051
:10205C0013F0200F02D010F0200F29D123685B69F8
:10206C0003F04003626C12F0080F00D163B32046FA
:10207C00FFF790FD23685B6913F0400F20D02268B6
:10208C0002F1140353E8003F23F04003143242E8FA
:10209C0000310029F3D1E36B73B1634A5A63E06BEF
:1020AC00FFF7A8F90028A5D0E06B436B9847A1E790
:1020BC002046FFF703FFD1E72046FFF7F5FE99E72F
:1020CC002046FFF7F1FE95E72046FFF7EDFE0023D3
:1020DC0063648FE713F0100F3FF47EAF10F0100F16
:1020EC003FF47AAF00230193136801935368019373
:1020FC00019B536913F0400F51D0E26B13685B687E
:10210C009BB2002B3FF476AFA18D99427FF672AF54
:10211C00E3859369202B37D0226802F10C0353E836
:10212C00003F23F480730C3242E800310029F3D1D4
:10213C00226802F1140353E8003F23F00103143228
:10214C0042E800310029F3D1226802F1140353E86C
:10215C00003F23F04003143242E800310029F3D150
:10216C00202384F8423000232363226802F10C03FD
:10217C0053E8003F23F010030C3242E800310029F1
:10218C00F3D1E06BFFF712F902236363A18DE38DAA
:10219C009BB2C91A89B22046FFF78FFE2AE7A18DA0
:1021AC00E38D9BB2C91A89B2E38D9BB2002B3FF42D
:1021BC0021AF00293FF41EAF226802F10C0353E853
:1021CC00003F23F490730C3242E800300028F3D126
:1021DC00226802F1140353E8003F23F00103143288
:1021EC0042E800300028F3D1202384F84230002349
:1021FC002363226802F10C0353E8003F23F0100321
:10220C000C3242E800300028F3D1022363632046ED
:10221C00FFF753FEEEE62046FFF7EAFCEAE620461F
:10222C00FFF734FEE6E600BFB71E0008FFF79AF989
:10223C000B480C490C4A002302E0D458C450043318
:10224C00C4188C42F9D3094A094C002301E01360ED
:10225C000432A242FBD300F00FF8FDF7ADFF70473C
:10226C0000000020700000201C2D000870000020D1
:10227C006C010020FEE7000070B500260C4D0D4CE3
:10228C00641BA410A64209D100F0AAFC00260A4D3A
:10229C000A4C641BA410A64205D170BD55F8043B32
:1022AC0098470136EEE755F8043B98470136F2E7BC
:1022BC00142D0008142D0008142D0008182D0008EA
:1022CC0003460244934200D1704703F8011BF9E71F
:1022DC000EB46FF0004100B59CB01DAB029006909F
:1022EC00079104910848094953F8042B059100689B
:1022FC0002A9019300F068F80022029B1A701CB02E
:10230C005DF804EB03B070470C0000200802FFFFDF
:10231C002DE9F0478E6882469E420C4690461F4639
:10232C0038D88A8912F4906F32D025680969013344
:10233C00A5EB010965694B4405EB450505EBD57526
:10234C006D109D4238BF1D46530531D5294600F00E
:10235C006FFB064650B90C234FF0FF30CAF8003023
:10236C00A38943F04003A381BDE8F0874A46216965
:10237C0000F0CEFAA38923F4906343F08003A38189
:10238C0026614E4426603E466561A5EB0905A560B5
:10239C00BE4200D93E4632464146206800F0C6FA9D
:1023AC00A36800209B1BA360236833442360DBE7F6
:1023BC002A4600F0B1FB06460028E1D150462169BF
:1023CC0000F0CEFAC7E700002DE9F04F98468B8954
:1023DC0007461B060D4614469DB00ED50B6963B916
:1023EC00402100F025FB2860286120B90C233B60BC
:1023FC004FF0FF30D1E040236B6100230993202381
:10240C008DF8293030234FF00109CDF80C80DFF81E
:10241C00A4818DF82A3023469A4613F8012B0AB171
:10242C00252AF9D1BAEB040B0BD05B462246294680
:10243C003846FFF76DFF013000F0AA80099A5A4424
:10244C0009929AF80030002B00F0A28000234FF084
:10245C00FF32CDE905230AF1010A049307938DF8A5
:10246C0053301A935446052214F8011B514800F0BE
:10247C0041FA049AD8B9D00644BF20238DF85330C2
:10248C00110744BF2B238DF853309AF800302A2BB8
:10249C0015D0544600204FF00A0C079A214611F82B
:1024AC00013B303B092B4ED9B0B1079214E0A0EBA5
:1024BC00080309FA03F31343A2460493D2E7039BE0
:1024CC00191D1B680391002BBBBF5B4242F002023B
:1024DC0007930793B8BF049223782E2B0CD1637803
:1024EC002A2B35D1039B02341A1D1B680392002B37
:1024FC00B8BF4FF0FF330593DFF8BCA00322504662
:10250C00217800F0F7F940B14023A0EB0A0003FA60
:10251C0000F0049B01340343049314F8011B0622BE
:10252C0026488DF8281000F0E5F9002838D0244B07
:10253C001BBB039B073323F0070308330393099B4F
:10254C003344099367E70C4601200CFB0232A5E7E4
:10255C0000234FF00A0C194601340593204610F85D
:10256C00012B303A092A03D9002BC5D00591C3E7BA
:10257C00044601230CFB0121F0E703AB00932A4630
:10258C003846104B04A9AFF30080421C0646D6D146
:10259C00AB895B063FF52CAF09981DB0BDE8F08FF9
:1025AC0003AB00932A463846064B04A900F07CF88E
:1025BC00EBE700BFDF2C0008E52C0008E92C000835
:1025CC00000000001D2300082DE9F047164699462F
:1025DC008A680B6907469342B8BF1346336091F87B
:1025EC0043200C46DDF820800AB1013333602368A8
:1025FC00990642BF336802333360256815F006052F
:10260C0006D104F1190AE36832689B1AAB4228DC44
:10261C0094F84320131E226818BF012392062DD470
:10262C004946384604F14302C047013020D02368A4
:10263C00E56803F00603042B18BF002532684FF041
:10264C000006A36808BFAD1A226908BF25EAE57524
:10265C009342C4BF9B1AED181A34B5421AD100200C
:10266C0008E00123524649463846C047013003D1A1
:10267C004FF0FF30BDE8F0870135C4E73020E1189A
:10268C0081F843005A1C94F845102244023382F816
:10269C004310C5E70123224649463846C04701305E
:1026AC00E6D00136D9E700002DE9FF470F7E9146B1
:1026BC00782F80460C469A460C9D01F1430207D8B0
:1026CC00622F0AD8002F00F0D980582F00F0A48078
:1026DC0004F1420584F842703AE0A7F16303152B2C
:1026EC00F6D801A151F823F04D2700086127000806
:1026FC00DD260008DD260008DD260008DD260008A2
:10270C0061270008DD260008DD260008DD2600080C
:10271C00DD2600086F2800089127000851280008C2
:10272C00DD260008DD26000891280008DD260008BB
:10273C0091270008DD260008DD260008592800082E
:10274C002B681A1D1B682A6004F1420584F842307C
:10275C000123A4E020682968060601F104030AD5C8
:10276C000E682B60002E03DA2D23764284F843305A
:10277C000A235E4819E00E6810F0400F2B6018BF5A
:10278C0036B2EFE72B682068191D2960010601D5C8
:10279C001E6802E04606FBD51E886F2F0CBF08236F
:1027AC000A235248002184F843106568002DA8BF05
:1027BC002168A560A4BF21F0040121600EB9002D91
:1027CC004DD01546B6FBF3F103FB1167C75D05F859
:1027DC00017D3746BB420E46F4D9082B0BD123683A
:1027EC00DE0708D5236961689942DEBF302305F8FE
:1027FC00013C05F1FF35521B22614B4621464046F8
:10280C00CDF800A003AAFFF7DFFE01304CD14FF04A
:10281C00FF3004B0BDE8F087344881F84570296872
:10282C00236851F8046B29601D0614D5DF0744BFDB
:10283C0043F0200323601EB9236823F02003236098
:10284C001023AFE7236843F0200323607823284844
:10285C0084F84530E3E7590648BFB6B2E6E71546BB
:10286C00BBE72B682668181D6169286035061B6854
:10287C0001D5196002E07006FBD5198000231546BE
:10288C002361BAE72B6800211A1D2A601D68626853
:10289C00284600F02FF808B1401B60606368236184
:1028AC00002384F84330A8E72A464946404623696A
:1028BC00D0470130ABD023689B0713D4E068039B4F
:1028CC009842B8BF1846A4E7012332464946404611
:1028DC00D04701309BD00135E36803995B1AAB42BA
:1028EC00F2DCEBE7002504F11906F5E7F02C000803
:1028FC00012D0008034610B5C9B202449342184694
:10290C0001D1002003E0047801338C42F6D110BDD4
:10291C000A44914200F1FF3300D1704710B511F811
:10292C00014B914203F8014FF9D110BD884210B50B
:10293C0001EB020402D98442234607D8431EA1426C
:10294C0008D011F8012B03F8012FF8E701460244D7
:10295C008A4200D110BD13F8014D02F8014DF7E782
:10296C0038B50546002940D051F8043C0C1F002B0B
:10297C00B8BFE41800F010F91C4A136833B963604F
:10298C0014602846BDE8384000F00CB9A34208D9C1
:10299C00206821188B4201BF19685B6809182160F7
:1029AC00EDE71A465B680BB1A342FAD911685018CF
:1029BC00A0420BD120680144501883421160E0D131
:1029CC0018685B68014411605360DAE702D90C2384
:1029DC002B60D6E7206821188B4201BF19685B6811
:1029EC000918216063605460CBE738BD58010020A2
:1029FC0070B50E4E0C463168054611B900F0BCF8A6
:102A0C0030602146284600F0B7F8431C0AD0C41C9D
:102A1C0024F00304A04207D0211A284600F0ACF899
:102A2C00013001D14FF0FF34204670BD5C01002015
:102A3C002DE9F041CD1C25F0030508350C2D38BFD0
:102A4C000C25002D074601DBA94205D90C230026D5
:102A5C003B603046BDE8F0812E4E00F09DF83368A7
:102A6C001C4634BB29463846FFF7C2FF431C0446BC
:102A7C004DD134682646002E40D123683146384665
:102A8C0004EB030800F078F880453AD1216803354F
:102A9C006D1A25F0030508350C2D38BF0C2538466A
:102AAC002946FFF7A5FF01302BD023682B44236068
:102ABC000EE02268521B1ED40B2A16D96119A342B0
:102ACC00256018BF5960636808BF316062514B6064
:102ADC00384604F10B0600F065F826F00706231DB6
:102AEC00F21AB6D09B1BA350B3E76268A3420CBF8B
:102AFC0032605A60ECE723466468B2E73446766885
:102B0C00B9E70C2338463B6000F04CF8A1E7256090
:102B1C00DEE700BF580100202DE9F0418046144645
:102B2C000E4621B91146BDE8F041FFF781BF2AB925
:102B3C00FFF716FF25462846BDE8F08100F038F86F
:102B4C008442074602D8B4EB500F12D821464046B7
:102B5C00FFF76EFF05460028EDD0BC4222463146F9
:102B6C0028BF3A46FFF7D4FE31464046FFF7F8FE41
:102B7C00E1E73546DFE7000038B50023054D044694
:102B8C0008462B6000F01EF8431C02D12B6803B1E1
:102B9C00236038BD60010020014800F011B800BF6F
:102BAC0064010020014800F00CB800BF6401002053
:102BBC0051F8043C181F002BBCBF0B58C0187047B1
:102BCC0070477047044A05491368002B08BF0B4631
:102BDC0018441060184670476801002070010020EE
:102BEC00F8B500BFF8BC08BC9E467047F8B500BFEE
:082BFC00F8BC08BC9E467047BE
:102C04000A0D416674657220496E69743A0A0D0AA8
:102C14000000000056616C75655B25645D203D20F5
:102C2400000000003078253038780A0002030405DB
:102C3400060708090A0B0C0D0E0F10100102000004
:102C44000000000000000000010203040607080958
:102C54000000000001020304537461743A203078C8
:102C6400253038780A0D00004D6F64653A203078BD
:102C7400253038780A0D0000436F6E663A203078AC
:102C8400253038780A0D0000446174613A203078A8
:102C9400253038780A0D000049443A203078253030
:102CA40038780A0D00000000494F3A20307825306A
:102CB40038780A0D000000004F66667365743A2088
:102CC4003078253038780A0D0000000046756C6CA9
:102CD4003A203078253038780A0D00232D302B2007
:102CE40000686C4C006566674546470030313233F6
:102CF4003435363738394142434445460030313261
:102D040033343536373839616263646566000000F0
:042D14003101000881
:042D18000D010008A1
:102D1C0001000000100000000024F400100000204E
:102D2C000000000000000000000000000000000097
:102D3C000000000000000000000000000000000087
:102D4C000000000000000000000000000000000077
:102D5C000000000000000000000000000000000067
:102D6C000000000000000000000000000000000057
:102D7C000000000000000000000000000000000047
:040000050800223994
:00000001FF
